{
  "_format": "hh-sol-artifact-1",
  "contractName": "GPUToken",
  "sourceName": "contracts/GPUToken.sol",
  "abi": [
    {
      "inputs": [
        {
          "internalType": "uint256",
          "name": "_initialPrice",
          "type": "uint256"
        }
      ],
      "stateMutability": "nonpayable",
      "type": "constructor"
    },
    {
      "inputs": [
        {
          "internalType": "address",
          "name": "spender",
          "type": "address"
        },
        {
          "internalType": "uint256",
          "name": "allowance",
          "type": "uint256"
        },
        {
          "internalType": "uint256",
          "name": "needed",
          "type": "uint256"
        }
      ],
      "name": "ERC20InsufficientAllowance",
      "type": "error"
    },
    {
      "inputs": [
        {
          "internalType": "address",
          "name": "sender",
          "type": "address"
        },
        {
          "internalType": "uint256",
          "name": "balance",
          "type": "uint256"
        },
        {
          "internalType": "uint256",
          "name": "needed",
          "type": "uint256"
        }
      ],
      "name": "ERC20InsufficientBalance",
      "type": "error"
    },
    {
      "inputs": [
        {
          "internalType": "address",
          "name": "approver",
          "type": "address"
        }
      ],
      "name": "ERC20InvalidApprover",
      "type": "error"
    },
    {
      "inputs": [
        {
          "internalType": "address",
          "name": "receiver",
          "type": "address"
        }
      ],
      "name": "ERC20InvalidReceiver",
      "type": "error"
    },
    {
      "inputs": [
        {
          "internalType": "address",
          "name": "sender",
          "type": "address"
        }
      ],
      "name": "ERC20InvalidSender",
      "type": "error"
    },
    {
      "inputs": [
        {
          "internalType": "address",
          "name": "spender",
          "type": "address"
        }
      ],
      "name": "ERC20InvalidSpender",
      "type": "error"
    },
    {
      "inputs": [],
      "name": "EnforcedPause",
      "type": "error"
    },
    {
      "inputs": [],
      "name": "ExpectedPause",
      "type": "error"
    },
    {
      "inputs": [
        {
          "internalType": "address",
          "name": "owner",
          "type": "address"
        }
      ],
      "name": "OwnableInvalidOwner",
      "type": "error"
    },
    {
      "inputs": [
        {
          "internalType": "address",
          "name": "account",
          "type": "address"
        }
      ],
      "name": "OwnableUnauthorizedAccount",
      "type": "error"
    },
    {
      "anonymous": false,
      "inputs": [
        {
          "indexed": true,
          "internalType": "address",
          "name": "owner",
          "type": "address"
        },
        {
          "indexed": true,
          "internalType": "address",
          "name": "spender",
          "type": "address"
        },
        {
          "indexed": false,
          "internalType": "uint256",
          "name": "value",
          "type": "uint256"
        }
      ],
      "name": "Approval",
      "type": "event"
    },
    {
      "anonymous": false,
      "inputs": [
        {
          "indexed": true,
          "internalType": "address",
          "name": "to",
          "type": "address"
        },
        {
          "indexed": false,
          "internalType": "uint256",
          "name": "amount",
          "type": "uint256"
        },
        {
          "indexed": false,
          "internalType": "uint256",
          "name": "timestamp",
          "type": "uint256"
        }
      ],
      "name": "GPUHoursMinted",
      "type": "event"
    },
    {
      "anonymous": false,
      "inputs": [
        {
          "indexed": true,
          "internalType": "address",
          "name": "from",
          "type": "address"
        },
        {
          "indexed": false,
          "internalType": "uint256",
          "name": "amount",
          "type": "uint256"
        },
        {
          "indexed": false,
          "internalType": "uint256",
          "name": "timestamp",
          "type": "uint256"
        }
      ],
      "name": "GPUHoursRedeemed",
      "type": "event"
    },
    {
      "anonymous": false,
      "inputs": [
        {
          "indexed": true,
          "internalType": "address",
          "name": "previousOwner",
          "type": "address"
        },
        {
          "indexed": true,
          "internalType": "address",
          "name": "newOwner",
          "type": "address"
        }
      ],
      "name": "OwnershipTransferred",
      "type": "event"
    },
    {
      "anonymous": false,
      "inputs": [
        {
          "indexed": false,
          "internalType": "address",
          "name": "account",
          "type": "address"
        }
      ],
      "name": "Paused",
      "type": "event"
    },
    {
      "anonymous": false,
      "inputs": [
        {
          "indexed": false,
          "internalType": "uint256",
          "name": "newPrice",
          "type": "uint256"
        },
        {
          "indexed": false,
          "internalType": "uint256",
          "name": "timestamp",
          "type": "uint256"
        }
      ],
      "name": "PriceUpdated",
      "type": "event"
    },
    {
      "anonymous": false,
      "inputs": [
        {
          "indexed": true,
          "internalType": "address",
          "name": "from",
          "type": "address"
        },
        {
          "indexed": true,
          "internalType": "address",
          "name": "to",
          "type": "address"
        },
        {
          "indexed": false,
          "internalType": "uint256",
          "name": "value",
          "type": "uint256"
        }
      ],
      "name": "Transfer",
      "type": "event"
    },
    {
      "anonymous": false,
      "inputs": [
        {
          "indexed": false,
          "internalType": "address",
          "name": "account",
          "type": "address"
        }
      ],
      "name": "Unpaused",
      "type": "event"
    },
    {
      "inputs": [],
      "name": "INITIAL_SUPPLY",
      "outputs": [
        {
          "internalType": "uint256",
          "name": "",
          "type": "uint256"
        }
      ],
      "stateMutability": "view",
      "type": "function"
    },
    {
      "inputs": [
        {
          "internalType": "address",
          "name": "owner",
          "type": "address"
        },
        {
          "internalType": "address",
          "name": "spender",
          "type": "address"
        }
      ],
      "name": "allowance",
      "outputs": [
        {
          "internalType": "uint256",
          "name": "",
          "type": "uint256"
        }
      ],
      "stateMutability": "view",
      "type": "function"
    },
    {
      "inputs": [
        {
          "internalType": "address",
          "name": "spender",
          "type": "address"
        },
        {
          "internalType": "uint256",
          "name": "value",
          "type": "uint256"
        }
      ],
      "name": "approve",
      "outputs": [
        {
          "internalType": "bool",
          "name": "",
          "type": "bool"
        }
      ],
      "stateMutability": "nonpayable",
      "type": "function"
    },
    {
      "inputs": [
        {
          "internalType": "address",
          "name": "account",
          "type": "address"
        }
      ],
      "name": "balanceOf",
      "outputs": [
        {
          "internalType": "uint256",
          "name": "",
          "type": "uint256"
        }
      ],
      "stateMutability": "view",
      "type": "function"
    },
    {
      "inputs": [],
      "name": "decimals",
      "outputs": [
        {
          "internalType": "uint8",
          "name": "",
          "type": "uint8"
        }
      ],
      "stateMutability": "pure",
      "type": "function"
    },
    {
      "inputs": [],
      "name": "getContractStats",
      "outputs": [
        {
          "internalType": "uint256",
          "name": "totalAvailable",
          "type": "uint256"
        },
        {
          "internalType": "uint256",
          "name": "totalUsed",
          "type": "uint256"
        },
        {
          "internalType": "uint256",
          "name": "currentPrice",
          "type": "uint256"
        },
        {
          "internalType": "uint256",
          "name": "contractBalance",
          "type": "uint256"
        }
      ],
      "stateMutability": "view",
      "type": "function"
    },
    {
      "inputs": [
        {
          "internalType": "address",
          "name": "_user",
          "type": "address"
        }
      ],
      "name": "getGPUStats",
      "outputs": [
        {
          "internalType": "uint256",
          "name": "purchased",
          "type": "uint256"
        },
        {
          "internalType": "uint256",
          "name": "used",
          "type": "uint256"
        },
        {
          "internalType": "uint256",
          "name": "balance",
          "type": "uint256"
        }
      ],
      "stateMutability": "view",
      "type": "function"
    },
    {
      "inputs": [
        {
          "internalType": "address",
          "name": "",
          "type": "address"
        }
      ],
      "name": "gpuHoursPurchased",
      "outputs": [
        {
          "internalType": "uint256",
          "name": "",
          "type": "uint256"
        }
      ],
      "stateMutability": "view",
      "type": "function"
    },
    {
      "inputs": [
        {
          "internalType": "address",
          "name": "",
          "type": "address"
        }
      ],
      "name": "gpuHoursUsed",
      "outputs": [
        {
          "internalType": "uint256",
          "name": "",
          "type": "uint256"
        }
      ],
      "stateMutability": "view",
      "type": "function"
    },
    {
      "inputs": [
        {
          "internalType": "address",
          "name": "_to",
          "type": "address"
        },
        {
          "internalType": "uint256",
          "name": "_gpuHours",
          "type": "uint256"
        }
      ],
      "name": "mintGPUHours",
      "outputs": [],
      "stateMutability": "nonpayable",
      "type": "function"
    },
    {
      "inputs": [],
      "name": "name",
      "outputs": [
        {
          "internalType": "string",
          "name": "",
          "type": "string"
        }
      ],
      "stateMutability": "view",
      "type": "function"
    },
    {
      "inputs": [],
      "name": "owner",
      "outputs": [
        {
          "internalType": "address",
          "name": "",
          "type": "address"
        }
      ],
      "stateMutability": "view",
      "type": "function"
    },
    {
      "inputs": [],
      "name": "pause",
      "outputs": [],
      "stateMutability": "nonpayable",
      "type": "function"
    },
    {
      "inputs": [],
      "name": "paused",
      "outputs": [
        {
          "internalType": "bool",
          "name": "",
          "type": "bool"
        }
      ],
      "stateMutability": "view",
      "type": "function"
    },
    {
      "inputs": [],
      "name": "pricePerToken",
      "outputs": [
        {
          "internalType": "uint256",
          "name": "",
          "type": "uint256"
        }
      ],
      "stateMutability": "view",
      "type": "function"
    },
    {
      "inputs": [
        {
          "internalType": "uint256",
          "name": "_gpuHours",
          "type": "uint256"
        }
      ],
      "name": "purchaseGPUHours",
      "outputs": [],
      "stateMutability": "payable",
      "type": "function"
    },
    {
      "inputs": [
        {
          "internalType": "uint256",
          "name": "_gpuHours",
          "type": "uint256"
        }
      ],
      "name": "redeemGPUHours",
      "outputs": [],
      "stateMutability": "nonpayable",
      "type": "function"
    },
    {
      "inputs": [],
      "name": "renounceOwnership",
      "outputs": [],
      "stateMutability": "nonpayable",
      "type": "function"
    },
    {
      "inputs": [],
      "name": "symbol",
      "outputs": [
        {
          "internalType": "string",
          "name": "",
          "type": "string"
        }
      ],
      "stateMutability": "view",
      "type": "function"
    },
    {
      "inputs": [],
      "name": "totalGPUHoursAvailable",
      "outputs": [
        {
          "internalType": "uint256",
          "name": "",
          "type": "uint256"
        }
      ],
      "stateMutability": "view",
      "type": "function"
    },
    {
      "inputs": [],
      "name": "totalGPUHoursUsed",
      "outputs": [
        {
          "internalType": "uint256",
          "name": "",
          "type": "uint256"
        }
      ],
      "stateMutability": "view",
      "type": "function"
    },
    {
      "inputs": [],
      "name": "totalSupply",
      "outputs": [
        {
          "internalType": "uint256",
          "name": "",
          "type": "uint256"
        }
      ],
      "stateMutability": "view",
      "type": "function"
    },
    {
      "inputs": [
        {
          "internalType": "address",
          "name": "to",
          "type": "address"
        },
        {
          "internalType": "uint256",
          "name": "value",
          "type": "uint256"
        }
      ],
      "name": "transfer",
      "outputs": [
        {
          "internalType": "bool",
          "name": "",
          "type": "bool"
        }
      ],
      "stateMutability": "nonpayable",
      "type": "function"
    },
    {
      "inputs": [
        {
          "internalType": "address",
          "name": "from",
          "type": "address"
        },
        {
          "internalType": "address",
          "name": "to",
          "type": "address"
        },
        {
          "internalType": "uint256",
          "name": "value",
          "type": "uint256"
        }
      ],
      "name": "transferFrom",
      "outputs": [
        {
          "internalType": "bool",
          "name": "",
          "type": "bool"
        }
      ],
      "stateMutability": "nonpayable",
      "type": "function"
    },
    {
      "inputs": [
        {
          "internalType": "address",
          "name": "newOwner",
          "type": "address"
        }
      ],
      "name": "transferOwnership",
      "outputs": [],
      "stateMutability": "nonpayable",
      "type": "function"
    },
    {
      "inputs": [],
      "name": "unpause",
      "outputs": [],
      "stateMutability": "nonpayable",
      "type": "function"
    },
    {
      "inputs": [
        {
          "internalType": "uint256",
          "name": "_newPrice",
          "type": "uint256"
        }
      ],
      "name": "updatePrice",
      "outputs": [],
      "stateMutability": "nonpayable",
      "type": "function"
    },
    {
      "inputs": [],
      "name": "withdrawFunds",
      "outputs": [],
      "stateMutability": "nonpayable",
      "type": "function"
    }
  ],
  "bytecode": "0x608060405234801561001057600080fd5b50604051611add380380611add83398101604081905261002f91610335565b336040518060400160405280601181526020017023a82a9021b7b6b83aba32902a37b5b2b760791b815250604051806040016040528060048152602001634750554360e01b815250816003908161008691906103ed565b50600461009382826103ed565b5050506001600160a01b0381166100c557604051631e4fbdf760e01b8152600060048201526024015b60405180910390fd5b6100ce8161017f565b5060068190556100e06012600a6105aa565b6100ec6012600a6105aa565b6100f990620f42406105c0565b61010391906105d7565b600755610128336101166012600a6105aa565b61012390620f42406105c0565b6101d1565b337fab00e82cc87e98b0967c12efc5075debb3a3766b2acf8dc3d7c2e2204d3be8626101566012600a6105aa565b61016390620f42406105c0565b604080519182524260208301520160405180910390a25061060c565b600580546001600160a01b038381166001600160a01b0319831681179093556040519116919082907f8be0079c531659141344cd1fd0a4f28419497f9722a3daafe3b4186f6b6457e090600090a35050565b6001600160a01b0382166101fb5760405163ec442f0560e01b8152600060048201526024016100bc565b6102076000838361020b565b5050565b6001600160a01b03831661023657806002600082825461022b91906105f9565b909155506102a89050565b6001600160a01b038316600090815260208190526040902054818110156102895760405163391434e360e21b81526001600160a01b038516600482015260248101829052604481018390526064016100bc565b6001600160a01b03841660009081526020819052604090209082900390555b6001600160a01b0382166102c4576002805482900390556102e3565b6001600160a01b03821660009081526020819052604090208054820190555b816001600160a01b0316836001600160a01b03167fddf252ad1be2c89b69c2b068fc378daa952ba7f163c4a11628f55a4df523b3ef8360405161032891815260200190565b60405180910390a3505050565b60006020828403121561034757600080fd5b5051919050565b634e487b7160e01b600052604160045260246000fd5b600181811c9082168061037857607f821691505b60208210810361039857634e487b7160e01b600052602260045260246000fd5b50919050565b601f8211156103e857806000526020600020601f840160051c810160208510156103c55750805b601f840160051c820191505b818110156103e557600081556001016103d1565b50505b505050565b81516001600160401b038111156104065761040661034e565b61041a816104148454610364565b8461039e565b6020601f82116001811461044e57600083156104365750848201515b600019600385901b1c1916600184901b1784556103e5565b600084815260208120601f198516915b8281101561047e578785015182556020948501946001909201910161045e565b508482101561049c5786840151600019600387901b60f8161c191681555b50505050600190811b01905550565b634e487b7160e01b600052601160045260246000fd5b6001815b60018411156104fc578085048111156104e0576104e06104ab565b60018416156104ee57908102905b60019390931c9280026104c5565b935093915050565b600082610513575060016105a4565b81610520575060006105a4565b816001811461053657600281146105405761055c565b60019150506105a4565b60ff841115610551576105516104ab565b50506001821b6105a4565b5060208310610133831016604e8410600b841016171561057f575081810a6105a4565b61058c60001984846104c1565b80600019048211156105a0576105a06104ab565b0290505b92915050565b60006105b960ff841683610504565b9392505050565b80820281158282048414176105a4576105a46104ab565b6000826105f457634e487b7160e01b600052601260045260246000fd5b500490565b808201808211156105a4576105a46104ab565b6114c28061061b6000396000f3fe6080604052600436106101b75760003560e01c80638456cb59116100ec578063b2a12a3c1161008a578063dfe6b5d611610064578063dfe6b5d6146104d6578063e43eee7a1461050d578063e6504bc91461053a578063f2fde38b1461055a57600080fd5b8063b2a12a3c1461045a578063b3c4c51b14610470578063dd62ed3e1461049057600080fd5b806391700241116100c657806391700241146103d457806395d89b411461040f578063a0e6e00914610424578063a9059cbb1461043a57600080fd5b80638456cb59146103775780638d6cc56d1461038c5780638da5cb5b146103ac57600080fd5b8063313ce567116101595780635c975abb116101335780635c975abb146102f757806370a0823114610316578063715018a61461034c5780637b1b1de61461036157600080fd5b8063313ce567146102b35780633f4ba83a146102cf5780634a932656146102e457600080fd5b806318160ddd1161019557806318160ddd1461025257806323b872dd1461026757806324600fc3146102875780632ff2e9dc1461029e57600080fd5b806306fdde03146101bc578063095ea7b3146101e757806315753e9f14610217575b600080fd5b3480156101c857600080fd5b506101d161057a565b6040516101de91906111a8565b60405180910390f35b3480156101f357600080fd5b50610207610202366004611212565b61060c565b60405190151581526020016101de565b34801561022357600080fd5b5061024461023236600461123c565b60096020526000908152604090205481565b6040519081526020016101de565b34801561025e57600080fd5b50600254610244565b34801561027357600080fd5b5061020761028236600461125e565b610626565b34801561029357600080fd5b5061029c61064a565b005b3480156102aa57600080fd5b506102446106da565b3480156102bf57600080fd5b50604051601281526020016101de565b3480156102db57600080fd5b5061029c6106f6565b61029c6102f236600461129b565b610708565b34801561030357600080fd5b50600554600160a01b900460ff16610207565b34801561032257600080fd5b5061024461033136600461123c565b6001600160a01b031660009081526020819052604090205490565b34801561035857600080fd5b5061029c6108ed565b34801561036d57600080fd5b5061024460065481565b34801561038357600080fd5b5061029c6108ff565b34801561039857600080fd5b5061029c6103a736600461129b565b61090f565b3480156103b857600080fd5b506005546040516001600160a01b0390911681526020016101de565b3480156103e057600080fd5b506103f46103ef36600461123c565b6109a7565b604080519384526020840192909252908201526060016101de565b34801561041b57600080fd5b506101d1610a06565b34801561043057600080fd5b5061024460075481565b34801561044657600080fd5b50610207610455366004611212565b610a15565b34801561046657600080fd5b5061024460085481565b34801561047c57600080fd5b5061029c61048b36600461129b565b610a23565b34801561049c57600080fd5b506102446104ab3660046112b4565b6001600160a01b03918216600090815260016020908152604080832093909416825291909152205490565b3480156104e257600080fd5b50600754600854600654476040805194855260208501939093529183015260608201526080016101de565b34801561051957600080fd5b5061024461052836600461123c565b600a6020526000908152604090205481565b34801561054657600080fd5b5061029c610555366004611212565b610b7a565b34801561056657600080fd5b5061029c61057536600461123c565b610ca3565b606060038054610589906112e7565b80601f01602080910402602001604051908101604052809291908181526020018280546105b5906112e7565b80156106025780601f106105d757610100808354040283529160200191610602565b820191906000526020600020905b8154815290600101906020018083116105e557829003601f168201915b5050505050905090565b60003361061a818585610ce1565b60019150505b92915050565b600033610634858285610cf3565b61063f858585610d72565b506001949350505050565b610652610dd1565b478061069c5760405162461bcd60e51b81526020600482015260146024820152734e6f2066756e647320746f20776974686472617760601b60448201526064015b60405180910390fd5b6005546040516001600160a01b039091169082156108fc029083906000818181858888f193505050501580156106d6573d6000803e3d6000fd5b5050565b6106e66012600a61141e565b6106f390620f424061142d565b81565b6106fe610dd1565b610706610dfe565b565b610710610e53565b6000811161076a5760405162461bcd60e51b815260206004820152602160248201527f4d757374207075726368617365206174206c6561737420312047505520686f756044820152603960f91b6064820152608401610693565b60006006548261077a919061142d565b9050803410156107c45760405162461bcd60e51b8152602060048201526015602482015274125b9cdd59999a58da595b9d08115512081cd95b9d605a1b6044820152606401610693565b60006107d26012600a61141e565b6107dc908461142d565b3060009081526020819052604090205490915081111561083e5760405162461bcd60e51b815260206004820152601e60248201527f4e6f7420656e6f7567682047505520686f75727320617661696c61626c6500006044820152606401610693565b610849303383610d72565b336000908152600a602052604081208054859290610868908490611444565b9091555050348210156108ad57336108fc6108838434611457565b6040518115909202916000818181858888f193505050501580156108ab573d6000803e3d6000fd5b505b6040805182815242602082015233917fab00e82cc87e98b0967c12efc5075debb3a3766b2acf8dc3d7c2e2204d3be86291015b60405180910390a2505050565b6108f5610dd1565b6107066000610e7e565b610907610dd1565b610706610ed0565b610917610dd1565b600081116109675760405162461bcd60e51b815260206004820152601c60248201527f5072696365206d7573742062652067726561746572207468616e2030000000006044820152606401610693565b6006819055604080518281524260208201527f945c1c4e99aa89f648fbfe3df471b916f719e16d960fcec0737d4d56bd696838910160405180910390a150565b6001600160a01b0381166000908152600a60208181526040808420546009909252832054909290916109db9060129061141e565b6001600160a01b0385166000908152602081905260409020546109fe919061146a565b929491935050565b606060048054610589906112e7565b60003361061a818585610d72565b610a2b610e53565b60008111610a7b5760405162461bcd60e51b815260206004820152601f60248201527f4d7573742072656465656d206174206c6561737420312047505520686f7572006044820152606401610693565b6000610a896012600a61141e565b610a93908361142d565b33600090815260208190526040902054909150811115610af55760405162461bcd60e51b815260206004820152601760248201527f496e73756666696369656e742047505520746f6b656e730000000000000000006044820152606401610693565b610aff3382610f13565b3360009081526009602052604081208054849290610b1e908490611444565b925050819055508160086000828254610b379190611444565b90915550506040805182815242602082015233917f7796b39401e3d18e7d185de5af088e0621fcb9b9f0c0892b29da47a4f6aa7de9910160405180910390a25050565b610b82610dd1565b6001600160a01b038216610bd85760405162461bcd60e51b815260206004820152601b60248201527f43616e6e6f74206d696e7420746f207a65726f206164647265737300000000006044820152606401610693565b60008111610c285760405162461bcd60e51b815260206004820152601d60248201527f4d757374206d696e74206174206c6561737420312047505520686f75720000006044820152606401610693565b6000610c366012600a61141e565b610c40908361142d565b9050610c4c8382610f49565b8160076000828254610c5e9190611444565b9091555050604080518281524260208201526001600160a01b038516917fab00e82cc87e98b0967c12efc5075debb3a3766b2acf8dc3d7c2e2204d3be86291016108e0565b610cab610dd1565b6001600160a01b038116610cd557604051631e4fbdf760e01b815260006004820152602401610693565b610cde81610e7e565b50565b610cee8383836001610f7f565b505050565b6001600160a01b03838116600090815260016020908152604080832093861683529290522054600019811015610d6c5781811015610d5d57604051637dc7a0d960e11b81526001600160a01b03841660048201526024810182905260448101839052606401610693565b610d6c84848484036000610f7f565b50505050565b6001600160a01b038316610d9c57604051634b637e8f60e11b815260006004820152602401610693565b6001600160a01b038216610dc65760405163ec442f0560e01b815260006004820152602401610693565b610cee838383611054565b6005546001600160a01b031633146107065760405163118cdaa760e01b8152336004820152602401610693565b610e0661117e565b6005805460ff60a01b191690557f5db9ee0a495bf2e6ff9c91a7834c1ba4fdd244a5e8aa4e537bd38aeae4b073aa335b6040516001600160a01b03909116815260200160405180910390a1565b600554600160a01b900460ff16156107065760405163d93c066560e01b815260040160405180910390fd5b600580546001600160a01b038381166001600160a01b0319831681179093556040519116919082907f8be0079c531659141344cd1fd0a4f28419497f9722a3daafe3b4186f6b6457e090600090a35050565b610ed8610e53565b6005805460ff60a01b1916600160a01b1790557f62e78cea01bee320cd4e420270b5ea74000d11b0c9f74754ebdbfc544b05a258610e363390565b6001600160a01b038216610f3d57604051634b637e8f60e11b815260006004820152602401610693565b6106d682600083611054565b6001600160a01b038216610f735760405163ec442f0560e01b815260006004820152602401610693565b6106d660008383611054565b6001600160a01b038416610fa95760405163e602df0560e01b815260006004820152602401610693565b6001600160a01b038316610fd357604051634a1406b160e11b815260006004820152602401610693565b6001600160a01b0380851660009081526001602090815260408083209387168352929052208290558015610d6c57826001600160a01b0316846001600160a01b03167f8c5be1e5ebec7d5bd14f71427d1e84f3dd0314c0f7b2291e5b200ac8c7c3b9258460405161104691815260200190565b60405180910390a350505050565b6001600160a01b03831661107f5780600260008282546110749190611444565b909155506110f19050565b6001600160a01b038316600090815260208190526040902054818110156110d25760405163391434e360e21b81526001600160a01b03851660048201526024810182905260448101839052606401610693565b6001600160a01b03841660009081526020819052604090209082900390555b6001600160a01b03821661110d5760028054829003905561112c565b6001600160a01b03821660009081526020819052604090208054820190555b816001600160a01b0316836001600160a01b03167fddf252ad1be2c89b69c2b068fc378daa952ba7f163c4a11628f55a4df523b3ef8360405161117191815260200190565b60405180910390a3505050565b600554600160a01b900460ff1661070657604051638dfc202b60e01b815260040160405180910390fd5b602081526000825180602084015260005b818110156111d657602081860181015160408684010152016111b9565b506000604082850101526040601f19601f83011684010191505092915050565b80356001600160a01b038116811461120d57600080fd5b919050565b6000806040838503121561122557600080fd5b61122e836111f6565b946020939093013593505050565b60006020828403121561124e57600080fd5b611257826111f6565b9392505050565b60008060006060848603121561127357600080fd5b61127c846111f6565b925061128a602085016111f6565b929592945050506040919091013590565b6000602082840312156112ad57600080fd5b5035919050565b600080604083850312156112c757600080fd5b6112d0836111f6565b91506112de602084016111f6565b90509250929050565b600181811c908216806112fb57607f821691505b60208210810361131b57634e487b7160e01b600052602260045260246000fd5b50919050565b634e487b7160e01b600052601160045260246000fd5b6001815b60018411156113725780850481111561135657611356611321565b600184161561136457908102905b60019390931c92800261133b565b935093915050565b60008261138957506001610620565b8161139657506000610620565b81600181146113ac57600281146113b6576113d2565b6001915050610620565b60ff8411156113c7576113c7611321565b50506001821b610620565b5060208310610133831016604e8410600b84101617156113f5575081810a610620565b6114026000198484611337565b806000190482111561141657611416611321565b029392505050565b600061125760ff84168361137a565b808202811582820484141761062057610620611321565b8082018082111561062057610620611321565b8181038181111561062057610620611321565b60008261148757634e487b7160e01b600052601260045260246000fd5b50049056fea2646970667358221220c095e301ac9fed8ad59fa849acfa1d0e8d9ca45bc85a277bbeb1e6507e7b102e64736f6c634300081c0033",
  "linkReferences": {},
  "deployedLinkReferences": {}
}